:100000000A128A11FC2FFF1B0D2883137F188317F8
:100010000008840A0319FF0A080000308A00040857
:10002000840A820700342034203444345334313479
:10003000333430343734203420345434453453345A
:08004000543420342034003454
:100A62000A128A1164250A128A11831603131114B9
:100A720008000A128A1164250A128A1183160313C6
:100A8200111508000A128A113A250A128A110A124D
:100A92008A1131250A128A110800F0000A128A11FD
:100AA20064250A128A117008831203139300080046
:100AB200831603138801091189100A128A11DE268E
:100AC2000A128A110800831603131419692D6A2D5C
:100AD200642D11081F39031D6F2D702D642D080020
:100AE2000A128A1127260A128A112A300A128A1138
:100AF20000260A128A112A300A128A1131270A1292
:100B02008A11762D0A128A11002800300A128A11DF
:100B120050260A128A11F6007608F70077087F3904
:100B2200F6007608F7007708F6007608F100003044
:100B32000A128A119F250A128A110800F2000A126B
:100B42008A1131250A128A11D0300A128A114E25D1
:100B52000A128A1172080A128A114E250A128A1181
:100B620071080A128A114E250A128A110A128A1172
:100B72003A250A128A110800F3007018C12DC52DFA
:100B8200831203130915C82D831203130911730865
:100B920088008914A630F100F10BCD2D00008312DC
:100BA200031389101B30F2009E30F100F10BD72D98
:100BB200F20BD72D00000800F1000A128A116425F9
:100BC2000A128A118316031391150A128A116425D7
:100BD2000A128A11831203131308F0007008F2003C
:100BE2007103031DF52DF62DFA2D831603139116AD
:100BF200FD2D831603139112111672080800F700D7
:100C020002300A128A1150260A128A11F600770857
:100C1200840076088313800001300A128A1150265C
:100C22000A128A11F600770A84007608831380007C
:100C320000300A128A1150260A128A11F600770829
:100C4200023E84007608831380000800003083127D
:100C52000313A3000130A2008630A100A030A0003F
:100C62000A128A11AC260A128A110A128A118625E0
:100C72000A128A110A128A1159250A128A1101309E
:100C8200F4008030F500803083120313A800280896
:100C9200F6000A128A117D260A128A110800F4004F
:100CA2000A128A1131250A128A11D0300A128A11C7
:100CB2004E250A128A1174080A128A114E250A1246
:100CC2008A110A128A1143250A128A11D1300A1294
:100CD2008A114E250A128A1100300A128A11DD2564
:100CE2000A128A11F3007308F5000A128A113A25D2
:100CF2000A128A1175080800F00176080A128A1190
:100D0200BD250A128A119B2EF001F00A7508FF0018
:100D1200740884000A128A1103200A128A110A1224
:100D22008A11BD250A128A110130F4070318F50A47
:100D32000030F507750883120313FF00740884005E
:100D42000A128A1103200A128A11003A031DAA2EDE
:100D5200AB2E852E08008312031394152008A400DD
:100D62002108A5002208A6002308A70002300310CC
:100D7200A40DA50DA60DA70DFF3E031DB82E270835
:100D8200F3002608F2002508F1002408F0000130E3
:100D9200F7003130F6002D30F5000030F4000A1271
:100DA2008A1196270A128A117008FF3E83160313CE
:100DB20093008312031394160800C330F500CD305C
:100DC200F400F40BE22EF50BE22EF00133300A129E
:100DD2008A11BD250A128A111B30F5009E30F400DB
:100DE200F40BF12EF50BF12E0000F00133300A1254
:100DF2008A11BD250A128A11A630F400F40BFF2EC7
:100E02000000F00133300A128A11BD250A128A113C
:100E12000A2F0B2F0000F00138300A128A11BD256B
:100E22000A128A11A630F400F40B152F0000F0010B
:100E320001300A128A11BD250A128A11A630F40065
:100E4200F40B212F0000F0010C300A128A11BD258B
:100E52000A128A11A630F400F40B2D2F00000800AC
:100E620083120313A9002908840083130008F700E2
:100E720004300310F70CFF3E031D3A2F77080339A5
:100E8200303EF8007808A0002908840000080F39D5
:100E9200303EF7007708A1003A30F7007708A20049
:100EA200290A84000008F70004300310F70CFF3E03
:100EB200031D562F77080739303EF8007808A30043
:100EC200290A840000080F39303EF7007708A40091
:100ED2003A30F7007708A5002908023E840000088E
:100EE200F70004300310F70CFF3E031D732F770841
:100EF2000739303EF8007808A6002908023E84002F
:100F020000080F39303EF7007708A700A80120300B
:100F1200F4000030F500C430F7007708F6000A123A
:100F22008A117D260A128A1108000030FC00003066
:100F3200FB000030FA000030F900730872047104FB
:100F420070040319A52FA62FF32FFD01FD0AB62F5A
:100F52000130F8000310F00DF10DF20DF30DF80B56
:100F6200AB2F0130F8007808FD07F31FB92FBA2F15
:100F7200A92F0130F8000310F90DFA0DFB0DFC0D3D
:100F8200F80BBC2F73087702031DD12F720876026B
:100F9200031DD12F71087502031DD12F7008740231
:100FA200031CD42FD52FE42F7008F4027108031C00
:100FB200710FF5027208031C720FF6027308031C0C
:100FC200730FF702791401300310F30CF20CF10CD9
:100FD200F00CFF3E031DE52F0130FD02031DF22F31
:100FE200F32FBA2F7C08F3007B08F2007A08F10095
:0E0FF2007908F000080083010A128A11712D9F
:08400000FF3FFF3FFF3FFF3FC0
:02400E00FB3F76
:00000001FF
